S00C0000554152542E73726563DC
S11300000C9447000C9464000C9464000C946400F9
S11300100C9464000C9464000C9464000C946400CC
S11300200C9464000C9464000C9464000C946400BC
S11300300C9464000C9464000C9464000C946400AC
S11300400C9464000C9464000C9464000C9464009C
S11300500C9464000C9464000C9464000C9464008C
S11300600C9464000C946400A601CC01A801AA01BC
S1130070AC01AE01B001B201B401B601B801BA01DC
S1130080BC01BE01C001C201C401C601C8011124E2
S11300901FBECFEFD8E0DEBFCDBF12E0A0E0B1E0DD
S11300A0E2EBFFE002C005900D92A430B107D9F74E
S11300B022E0A4E0B2E001C01D92AE30B207E1F745
S11300C00E94FB010C94D7070C9400008AB18B7F2B
S11300D08AB98BB184608BB908954A9902C081E0D2
S11300E0089580E0089584B1846084B9089520E07F
S11300F030E026173707B4F495B184E0982795B912
S1130100E3E8F3E03197F1F700C0000095B18927E7
S113011085B983E893E00197F1F700C000002F5FF1
S11301203F4FE7CF85B18B7F85B90895089585B199
S1130130816085B984B1816084B928EC2A95F1F78E
S113014085B18E7F85B95FE38EEC90E0515080409D
S11301509040E1F700C0000084B18E7F84B928E0AC
S11301602A95F1F71899FECF58E05A95F1F7189BA4
S1130170FECF88E08A95F1F71899FECF98E09A951A
S1130180F1F780E060E0883090F4189BFECF24ED16
S11301902A95F1F793B19170692B60FF03C054E97C
S11301A05A95F1F7873009F0660F8F5FECCF80E046
S11301B040E0883090F4189BFECF94ED9A95F1F7C7
S11301C093B19170492B40FF03C024E92A95F1F7BC
S11301D0873009F0440F8F5FECCF80E030E0883047
S11301E090F4189BFECF54ED5A95F1F793B19170AA
S11301F0392B30FF03C094E99A95F1F7873009F061
S1130200330F8F5FECCF80E020E0883090F4189BB0
S1130210FECF54ED5A95F1F793B19170292B20FF3D
S113022003C094E99A95F1F7873009F0220F8F5FA4
S1130230ECCF90E080E0983090F4189BFECF54ED22
S11302405A95F1F753B15170852B80FF03C054E9DF
S11302505A95F1F7973009F0880F9F5FECCFE42FA0
S1130260F0E0E60FF11DE30FF11DE20FF11D90E048
S1130270E817F907B1F4862F90E0A0E0B0E0BA2FB8
S1130280A92F982F8827842BBA2FA92F982F882736
S1130290832BBA2FA92F982F8827BC01CD01622B5D
S11302A0089560E070E0CB0108950E949700611505
S11302B071058105910511F0872F089580E0089557
S11302C00E949700611571058105910511F0892F30
S11302D0089580E0089587B1806287B987B180610D
S11302E087B98AB180688AB984B1826084B9089573
S11302F088B1806188B990E0983090F4662324F442
S113030088B1806288B903C088B18F7D88B985B10E
S1130310826085B985B18D7F85B9660F9F5FECCF0B
S11303208BB180688BB98BB18F778BB988B18F7E95
S113033088B90895E62FEF714E2F50E043315105EF
S113034048F5FA01EC5CFF4F0C9434036FE325C0CD
S11303506BE523C06FE421C066E61FC06DE61DC0D7
S11303606DE71BC067E019C06FE717C06FE615C0E3
S113037067E713C06CE711C068E50FC06EE50DC0F8
S113038069E70BC061E709C060E807C069E405C01C
S113039060E003C060E001C066E00E947801089557
S11303A0662321F08BB18F7B8BB903C08BB1806442
S11303B08BB9442321F08BB1877F8BB903C08BB1F8
S11303C088608BB9222321F08BB18F7D8BB908957E
S11303D08BB180628BB908952AB120642AB92AB1FD
S11303E020622AB92AB128602AB920E040E060E0FE
S11303F00E94D0010895CF93DF93CDB7DEB727973E
S11304000FB6F894DEBF0FBECDBFCE0101960E9499
S1130410EC0120E040E061E0CE0101960E94D001B1
S1130420CE0102960E946600CE0103960E946B01E3
S1130430CE0104960E940903CE0106960E949600FE
S1130440CE0107960E94730060E0CE0103960E94DD
S11304509A0186E091E00E949B0386E191E00E946C
S11304609B032FEF82E597E0215080409040E1F715
S113047000C0000083E291E00E949B032FEF89EB10
S11304809BED215080409040E1F700C0000086E5DC
S113049091E00E949B032FEF82E597E0215080407A
S11304A09040E1F700C0000020E041E060E0CE01B0
S11304B001960E94D00168EE73E0CE0107960E9477
S11304C07700CE0102960E946D008823D1F320E0CC
S11304D040E061E0CE0101960E94D00161E0CE01CE
S11304E003960E949A01CE0106960E946001182F7D
S11304F083E691E00E949B032FEF82E597E0215071
S113050080409040E1F700C0000080E991E00E9443
S11305109B032FEF82E597E0215080409040E1F764
S113052000C000001F921F9381EA91E09F938F9374
S11305300E9485032FEF8CED9DE621508040904072
S1130540E1F700C0000062E0CE0103960E949A0128
S1130550CE0106960E945501182F86E591E00E946F
S11305609B032FEF82E597E0215080409040E1F714
S113057000C0000083E691E00E949B032FEF82E518
S113058097E0215080409040E1F700C0000080E9EE
S113059091E00E949B032FEF82E597E02150804079
S11305A09040E1F700C000001F921F9382ED91E09C
S11305B09F938F930E94850320E041E060E0CE0189
S11305C001960E94D00160E0CE0103960E949A0138
S11305D00FB6F894DEBF0FBECDBF73CFCF93C82F35
S11305E08A3029F460E070E08DE00E94EE02809190
S11305F0C00085FFFCCFC093C60080E090E0CF919F
S113060008958091C0008823E4F78091C60090E0AB
S11306100895CF93DF93EC018AB182608AB9109276
S1130620C5008CE08093C400E2ECF0E08081866039
S11306308083E1ECF0E0808188618083E0ECF0E08D
S113064080818260808361E073E08EEE92E00E949C
S11306503A0399838883E4E0F2E09183808393836F
S11306608283DF91CF910895EE0FFF1F0590F491DF
S1130670E02D09940F931F93CF93DF93009731F4E8
S11306806115710519F480E090E03AC08B01EC012A
S11306906EE070E081E090E00E94AC05FC01892BE3
S11306A091F380E883830115110571F013870287A4
S11306B081E883838091040290910502892B21F4BF
S11306C0F0930502E09304022097C9F0D187C08714
S11306D08381826083838091060290910702892B33
S11306E071F4F0930702E09306028091080290915E
S11306F00902892B21F4F0930902E0930802CF0147
S1130700DF91CF911F910F910895A0E0B0E0EBE845
S1130710F3E00C94B007AE014B5F5F4FFA016191B7
S11307207191AF0180910602909107020E94CB0360
S1130730E2E00C94CC070F931F93CF93DF93E091E7
S11307400602F0910702238121FF1BC08C01D0E037
S1130750C0E0F80181918F01609106027091070257
S1130760DB011896ED91FC911997882331F00995D6
S1130770892B79F3DFEFCFEFECCF8AE00995892B52
S113078019F08FEF9FEF02C08D2F9C2FDF91CF9137
S11307901F910F910895ABE0B0E0E1EDF3E00C940C
S11307A0A0076C017B018A01FC01178216828381F8
S11307B081FFCCC1CE0101963C01F6019381F70182
S11307C093FD859193FF81917F01882309F4BAC138
S11307D0853239F493FD859193FF81917F018532B0
S11307E029F4B60190E00E940607E7CF912C212C52
S11307F0312CFFE1F315D8F08B3279F038F48032E4
S113080079F08332A1F4232D20611DC08D3261F073
S1130810803369F4232D216016C0832D8260382E25
S1130820E32DE4603E2E2AC0F32DF8601DC037FC92
S11308302DC020ED280F2A3040F08E32B9F436FC5A
S113084081C1232D2064322E19C036FE06C08AE0F1
S1130850989E200D1124922E11C0EAE02E9E200DA8
S11308601124222EF32DF0623F2E08C08C3621F481
S1130870832D8068382E02C0883641F4F70193FD39
S1130880859193FF81917F018111B3CF982F9F7D33
S11308909554933028F40C5F1F4F9FE399830DC048
S11308A0833631F0833771F0833509F059C021C0A4
S11308B0F801808189830E5F1F4F88248394912CD3
S11308C0530113C02801F2E04F0E511CF801A0801F
S11308D0B18036FE03C0692D70E002C06FEF7FEF78
S11308E0C5010E94FB064C018201F32DFF773F2EC8
S11308F016C0280122E0420E511CF801A080B180EC
S113090036FE03C0692D70E002C06FEF7FEFC501B2
S11309100E94E9064C01F32DF0683F2E820133FC5E
S11309201BC0822D90E088169906B0F4B60180E2CF
S113093090E00E9406072A94F4CFF50137FC8591D4
S113094037FE81915F01B60190E00E9406072110F5
S11309502A9421E0821A91088114910471F7E8C065
S1130960843611F0893641F5F80137FE07C06081FD
S11309707181828193810C5F1F4F08C060817181F6
S1130980072E000C880B990B0E5F1F4FF32DFF767B
S11309903F2E97FF09C090958095709561957F4F84
S11309A08F4F9F4FF0683F2E2AE030E0A3010E9452
S11309B04207882E861845C0853731F4232D2F7EB3
S11309C0B22E2AE030E025C0932D997FB92E8F36C0
S11309D0C1F018F4883579F0B5C0803719F088373C
S11309E021F0B0C0E92FE061BE2EB4FE0DC0FB2D96
S11309F0F460BF2E09C034FE0AC0292F2660B22E2F
S1130A0006C028E030E005C020E130E002C020E16B
S1130A1032E0F801B7FE07C0608171818281938161
S1130A200C5F1F4F06C06081718180E090E00E5F13
S1130A301F4FA3010E944207882E8618FB2DFF77C3
S1130A403F2E36FE0DC0232D2E7FA22E891458F47E
S1130A5034FE0BC032FC09C0832D8E7EA82E05C047
S1130A60B82CA32C03C0B82C01C0B92CA4FE0FC011
S1130A70FE01E80DF11D8081803321F49A2D997EC9
S1130A80A92E09C0A2FE06C0B394B39404C08A2D53
S1130A90867809F0B394A3FC11C0A0FE06C0B2147A
S1130AA088F4280C922C9B180EC0B21460F4B60182
S1130AB080E290E00E940607B394F7CFB21418F4D2
S1130AC02B1802C0982C212CA4FE10C0B60180E380
S1130AD090E00E940607A2FE17C0A1FC03C088E7AD
S1130AE090E002C088E590E0B6010CC08A2D8678BB
S1130AF059F0A1FE02C08BE201C080E2A7FC8DE2A6
S1130B00B60190E00E940607891438F4B60180E328
S1130B1090E00E9406079A94F7CF8A94F301E80DB7
S1130B20F11D8081B60190E00E9406078110F5CF87
S1130B30222009F442CEB60180E290E00E9406072A
S1130B402A94F6CFF6018681978102C08FEF9FEF3A
S1130B502B96E2E10C94BC070F931F93CF93DF9382
S1130B60869F8001879F100D969F100D1124C80148
S1130B700E94C805EC01009729F0A80160E070E02C
S1130B800E94F406CE01DF91CF911F910F91089539
S1130B900F931F93CF93DF938230910510F482E07B
S1130BA090E0E0910C02F0910D0220E030E0A0E032
S1130BB0B0E0309719F140815181028113814817C7
S1130BC05907C8F08417950769F4109731F0129605
S1130BD00C93129713961C9327C000930C02109346
S1130BE00D0222C02115310519F04217530718F4DC
S1130BF09A01BD01EF01DF01F801DBCF21153105B9
S1130C00F9F0281B390B2430310580F48A819B814B
S1130C106115710521F0FB019383828304C09093D5
S1130C200D0280930C02FE01329644C0FE01E20FD5
S1130C30F31F8193919322503109398328833AC059
S1130C4020910A0230910B02232B41F420910201DE
S1130C503091030130930B0220930A02209100018A
S1130C60309101012115310541F42DB73EB7409172
S1130C70040150910501241B350BE0910A02F09107
S1130C800B02E217F307A0F42E1B3F0B28173907BA
S1130C9078F0AC014E5F5F4F2417350748F04E0FD4
S1130CA05F1F50930B0240930A028193919302C0F9
S1130CB0E0E0F0E0CF01DF91CF911F910F91089513
S1130CC0CF93DF93009709F481C0FC01329713821C
S1130CD01282A0910C02B0910D02109781F4208130
S1130CE03181820F931F20910A0230910B02281741
S1130CF0390751F5F0930B02E0930A0267C0ED0146
S1130D0020E030E0CE17DF0740F44A815B819E018A
S1130D1041155105F1F0EA01F5CFD383C283408137
S1130D205181840F951FC817D90759F48881998177
S1130D30840F951F0296918380838A819B8193837C
S1130D4082832115310529F4F0930D02E0930C02FE
S1130D503DC0E901FB83EA8349915991C40FD51F32
S1130D60EC17FD0761F480819181840F951F029631
S1130D70E90199838883828193819B838A83E0E05C
S1130D80F0E012968D919C911397009719F0FD0154
S1130D90DC01F7CF8D919C9111979D012E5F3F4F00
S1130DA0820F931F20910A0230910B0228173907F2
S1130DB069F4309729F410920D0210920C0202C0CB
S1130DC013821282B0930B02A0930A02DF91CF9197
S1130DD00895FC010590615070400110D8F780958A
S1130DE090958E0F9F1F0895DC0101C06D934150B3
S1130DF05040E0F70895FC016150704001900110EB
S1130E00D8F7809590958E0F9F1F08950F931F9389
S1130E10CF93DF93FB01238121FD03C08FEF9FEF6D
S1130E202CC022FF16C04681578124813581421788
S1130E30530744F4A081B1819D012F5F3F4F31835B
S1130E4020838C93268137812F5F3F4F37832683FE
S1130E5014C08B01EC01FB010084F185E02D0995A0
S1130E60892BE1F6D80116968D919C9117970196DE
S1130E7017969C938E931697CE01DF91CF911F9175
S1130E800F910895FA01AA27283051F1203181F1F8
S1130E90E8946F936E7F6E5F7F4F8F4F9F4FAF4F7E
S1130EA0B1E03ED0B4E03CD0670F781F891F9A1F91
S1130EB0A11D680F791F8A1F911DA11D6A0F711D45
S1130EC0811D911DA11D20D009F468943F912AE051
S1130ED0269F11243019305D3193DEF6CF01089539
S1130EE0462F4770405D4193B3E00FD0C9F7F6CF6A
S1130EF0462F4F70405D4A3318F0495D31FD405232
S1130F00419302D0A9F7EACFB4E0A69597958795C7
S1130F1077956795BA95C9F70097610571050895A6
S1130F209B01AC010A2E0694579547953795279552
S1130F30BA95C9F7620F731F841F951FA01D0895EA
S1130F402F923F924F925F926F927F928F929F92D5
S1130F50AF92BF92CF92DF92EF92FF920F931F93C3
S1130F60CF93DF93CDB7DEB7CA1BDB0B0FB6F89474
S1130F70DEBF0FBECDBF09942A88398848885F84B4
S1130F806E847D848C849B84AA84B984C884DF8025
S1130F90EE80FD800C811B81AA81B981CE0FD11D09
S1130FA00FB6F894DEBF0FBECDBFED010895F894DF
S1050FB0FFCF6D
S1130FB200000E022000496E697469616C697A65E9
S1130FC2203A29200D0041542B43574D4F44453DAF
S1130FD2310D0041542B43574A41503D224C69760E
S1130FE265626F782D34394630222C222A6C65735F
S1130FF26361726F74746573736F6E74637569740D
S113100265732A220D0041542B4349504D55583DD6
S1131012310D0041542B43495053544152543D30F5
S11310222C22544350222C226170692E7468696EFA
S113103267737065616B2E636F6D222C38300D00FF
S113104241542B43495053454E443D302C34390DC1
S113105200474554202F7570646174653F6170695F
S11310625F6B65793D374951563241304A51594394
S11310724F50444C30266669656C64323D25640ADF
S11310820D00474554202F7570646174653F61708B
S1131092695F6B65793D374951563241304A51593E
S11310A2434F50444C30266669656C64313D256477
S10710B20A0D00001F
S9030000FC
