S00C0000554152542E73726563DC
S11300000C9434000C9451000C9451000C94510045
S11300100C9451000C9451000C9451000C94510018
S11300200C9451000C9451000C9451000C94510008
S11300300C9451000C9451000C9451000C945100F8
S11300400C9451000C9451000C9451000C945100E8
S11300500C9451000C9451000C9451000C945100D8
S11300600C9451000C94510011241FBECFEFD8E022
S1130070DEBFCDBF11E0A0E0B1E0E6E3FCE002C0EA
S113008005900D92AC3EB107D9F721E0ACEEB1E09A
S113009001C01D92A63FB207E1F70E9499000C949B
S11300A019060C9400008AB18B7F8AB98BB18460E5
S11300B08BB908954A9902C081E0089580E00895BB
S11300C0089587B1806287B987B1806187B98AB1A1
S11300D080688AB984B1826084B90895662321F066
S11300E08BB18F7B8BB903C08BB180648BB94423F4
S11300F021F08BB1877F8BB903C08BB188608BB93A
S1130100222321F08BB18F7D8BB908958BB180624E
S11301108BB908952AB120642AB92AB120622AB978
S11301202AB128602AB920E040E060E00E946E0015
S11301300895CF93DF9300D000D000D0CDB7DEB7C1
S1130140CE0101960E948A0020E040E061E0CE01E9
S113015001960E946E00CE0102960E945300CE01C9
S113016003960E946100CE0104960E945101CE01C3
S113017006960E94600086E091E00E94DD0182E123
S113018091E00E94DD012FEF82E597E0215080404D
S11301909040E1F700C000008FE191E00E94DD0192
S11301A02FEF89EB9BED215080409040E1F700C098
S11301B000008CE491E00E94DD012FEF82E597E0DE
S11301C0215080409040E1F700C0000020E041E071
S11301D060E0CE0101960E946E002FEF82E597E069
S11301E0215080409040E1F700C00000CE0102960B
S11301F00E945A008823D1F389E591E09F938F935D
S11302000E94C7018BE691E00E94DD012FEF82E599
S113021097E0215080409040E1F700C0000088E959
S113022091E00E94DD012FEF82E597E021508040AC
S11302309040E1F700C0000089EA91E09F938F931A
S11302400E94C7018BED91E09F938F930E94C70199
S113025021E041E060E0CE0101960E946E000F9023
S11302600F900F900F900F900F90B7CFCF93C82F90
S11302708A3029F460E070E08DE00E9436018091BC
S1130280C00085FFFCCFC093C60080E090E0CF9112
S113029008958091C0008823E4F78091C60090E01F
S11302A00895CF93DF93EC018AB182608AB91092EA
S11302B0C5008CE08093C400E2ECF0E080818660AD
S11302C08083E1ECF0E0808188618083E0ECF0E001
S11302D080818260808369E471E086E391E00E941A
S11302E07C0199838883ECEEF1E09183808393838E
S11302F08283DF91CF9108950F931F93CF93DF9360
S1130300009731F46115710519F480E090E03AC06A
S11303108B01EC016EE070E081E090E00E94EE035E
S1130320FC01892B91F380E883830115110571F099
S11303301387028781E883838091EC019091ED011A
S1130340892B21F4F093ED01E093EC012097C9F09F
S1130350D187C0878381826083838091EE019091ED
S1130360EF01892B71F4F093EF01E093EE0180919A
S1130370F0019091F101892B21F4F093F101E093C4
S1130380F001CF01DF91CF911F910F910895A0E06B
S1130390B0E0EDECF1E00C94F205AE014B5F5F4F81
S11303A0FA0161917191AF018091EE019091EF0199
S11303B00E940D02E2E00C940E060F931F93CF935C
S11303C0DF93E091EE01F091EF01238121FF1BC047
S11303D08C01D0E0C0E0F80181918F016091EE01C1
S11303E07091EF01DB011896ED91FC911997882328
S11303F031F00995892B79F3DFEFCFEFECCF8AE069
S11304000995892B19F08FEF9FEF02C08D2F9C2F38
S1130410DF91CF911F910F910895ABE0B0E0E3E13C
S1130420F2E00C94E2056C017B018A01FC01178265
S11304301682838181FFCCC1CE0101963C01F60175
S11304409381F70193FD859193FF81917F01882327
S113045009F4BAC1853239F493FD859193FF8191F2
S11304607F01853229F4B60190E00E944805E7CF68
S1130470912C212C312CFFE1F315D8F08B3279F03B
S113048038F4803279F08332A1F4232D20611DC029
S11304908D3261F0803369F4232D216016C0832DE1
S11304A08260382EE32DE4603E2E2AC0F32DF860DE
S11304B01DC037FC2DC020ED280F2A3040F08E32AD
S11304C0B9F436FC81C1232D2064322E19C036FEC6
S11304D006C08AE0989E200D1124922E11C0EAE0F5
S11304E02E9E200D1124222EF32DF0623F2E08C0E3
S11304F08C3621F4832D8068382E02C0883641F46E
S1130500F70193FD859193FF81917F018111B3CF11
S1130510982F9F7D9554933028F40C5F1F4F9FE3D1
S113052099830DC0833631F0833771F0833509F038
S113053059C021C0F801808189830E5F1F4F882430
S11305408394912C530113C02801F2E04F0E511CE7
S1130550F801A080B18036FE03C0692D70E002C0AE
S11305606FEF7FEFC5010E943D054C018201F32D21
S1130570FF773F2E16C0280122E0420E511CF801DD
S1130580A080B18036FE03C0692D70E002C06FEF19
S11305907FEFC5010E942B054C01F32DF0683F2E1F
S11305A0820133FC1BC0822D90E088169906B0F4BA
S11305B0B60180E290E00E9448052A94F4CFF50148
S11305C037FC859137FE81915F01B60190E00E946E
S11305D0480521102A9421E0821A9108811491047B
S11305E071F7E8C0843611F0893641F5F80137FE19
S11305F007C060817181828193810C5F1F4F08C0A5
S113060060817181072E000C880B990B0E5F1F4FC0
S1130610F32DFF763F2E97FF09C090958095709536
S113062061957F4F8F4F9F4FF0683F2E2AE030E057
S1130630A3010E948405882E861845C0853731F4AD
S1130640232D2F7EB22E2AE030E025C0932D997FF2
S1130650B92E8F36C1F018F4883579F0B5C08037DB
S113066019F0883721F0B0C0E92FE061BE2EB4FE46
S11306700DC0FB2DF460BF2E09C034FE0AC0292F23
S11306802660B22E06C028E030E005C020E130E04C
S113069002C020E132E0F801B7FE07C06081718139
S11306A0828193810C5F1F4F06C06081718180E05D
S11306B090E00E5F1F4FA3010E948405882E8618C8
S11306C0FB2DFF773F2E36FE0DC0232D2E7FA22E4D
S11306D0891458F434FE0BC032FC09C0832D8E7E7D
S11306E0A82E05C0B82CA32C03C0B82C01C0B92C6B
S11306F0A4FE0FC0FE01E80DF11D8081803321F4BA
S11307009A2D997EA92E09C0A2FE06C0B394B39473
S113071004C08A2D867809F0B394A3FC11C0A0FE0E
S113072006C0B21488F4280C922C9B180EC0B21484
S113073060F4B60180E290E00E944805B394F7CFDC
S1130740B21418F42B1802C0982C212CA4FE10C04B
S1130750B60180E390E00E944805A2FE17C0A1FC08
S113076003C088E790E002C088E590E0B6010CC0C1
S11307708A2D867859F0A1FE02C08BE201C080E286
S1130780A7FC8DE2B60190E00E944805891438F474
S1130790B60180E390E00E9448059A94F7CF8A94CA
S11307A0F301E80DF11D8081B60190E00E94480537
S11307B08110F5CF222009F442CEB60180E290E008
S11307C00E9448052A94F6CFF6018681978102C0DB
S11307D08FEF9FEF2B96E2E10C94FE050F931F938E
S11307E0CF93DF93869F8001879F100D969F100DF6
S11307F01124C8010E940A04EC01009729F0A80101
S113080060E070E00E943605CE01DF91CF911F9128
S11308100F9108950F931F93CF93DF938230910527
S113082010F482E090E0E091F401F091F50120E011
S113083030E0A0E0B0E0309719F1408151810281AD
S1130840138148175907C8F08417950769F410975E
S113085031F012960C93129713961C9327C00093B1
S1130860F4011093F50122C02115310519F0421746
S1130870530718F49A01BD01EF01DF01F801DBCF42
S113088021153105F9F0281B390B2430310580F48A
S11308908A819B816115710521F0FB019383828319
S11308A004C09093F5018093F401FE01329644C094
S11308B0FE01E20FF31F8193919322503109398392
S11308C028833AC02091F2013091F301232B41F4A3
S11308D020910201309103013093F3012093F2013E
S11308E020910001309101012115310541F42DB70A
S11308F03EB74091040150910501241B350BE09152
S1130900F201F091F301E217F307A0F42E1B3F0B61
S11309102817390778F0AC014E5F5F4F241735076D
S113092048F04E0F5F1F5093F3014093F2018193FF
S1130930919302C0E0E0F0E0CF01DF91CF911F91ED
S11309400F910895CF93DF93009709F481C0FC01C0
S1130950329713821282A091F401B091F50110979D
S113096081F420813181820F931F2091F201309113
S1130970F3012817390751F5F093F301E093F201DD
S113098067C0ED0120E030E0CE17DF0740F44A8174
S11309905B819E0141155105F1F0EA01F5CFD38346
S11309A0C28340815181840F951FC817D90759F418
S11309B088819981840F951F0296918380838A810F
S11309C09B81938382832115310529F4F093F501EA
S11309D0E093F4013DC0E901FB83EA834991599115
S11309E0C40FD51FEC17FD0761F480819181840F3A
S11309F0951F0296E90199838883828193819B8361
S1130A008A83E0E0F0E012968D919C911397009711
S1130A1019F0FD01DC01F7CF8D919C9111979D0197
S1130A202E5F3F4F820F931F2091F2013091F3010B
S1130A302817390769F4309729F41092F5011092B8
S1130A40F40102C013821282B093F301A093F20165
S1130A50DF91CF910895FC01059061507040011021
S1130A60D8F7809590958E0F9F1F0895DC0101C0E3
S1130A706D9341505040E0F70895FC01615070407F
S1130A8001900110D8F7809590958E0F9F1F0895BF
S1130A900F931F93CF93DF93FB01238121FD03C0A9
S1130AA08FEF9FEF2CC022FF16C04681578124810F
S1130AB035814217530744F4A081B1819D012F5F12
S1130AC03F4F318320838C93268137812F5F3F4FA3
S1130AD03783268314C08B01EC01FB010084F1856C
S1130AE0E02D0995892BE1F6D80116968D919C91FC
S1130AF01797019617969C938E931697CE01DF91C4
S1130B00CF911F910F910895FA01AA27283051F12E
S1130B10203181F1E8946F936E7F6E5F7F4F8F4F2A
S1130B209F4FAF4FB1E03ED0B4E03CD0670F781F89
S1130B30891F9A1FA11D680F791F8A1F911DA11D6E
S1130B406A0F711D811D911DA11D20D009F46894A7
S1130B503F912AE0269F11243019305D3193DEF64F
S1130B60CF010895462F4770405D4193B3E00FD005
S1130B70C9F7F6CF462F4F70405D4A3318F0495DF0
S1130B8031FD4052419302D0A9F7EACFB4E0A695D3
S1130B909795879577956795BA95C9F700976105F5
S1130BA0710508959B01AC010A2E0694579547954B
S1130BB037952795BA95C9F7620F731F841F951F40
S1130BC0A01D08952F923F924F925F926F927F9251
S1130BD08F929F92AF92BF92CF92DF92EF92FF9249
S1130BE00F931F93CF93DF93CDB7DEB7CA1BDB0BF5
S1130BF00FB6F894DEBF0FBECDBF09942A8839889A
S1130C0048885F846E847D848C849B84AA84B984A0
S1130C10C884DF80EE80FD800C811B81AA81B981AC
S1130C20CE0FD11D0FB6F894DEBF0FBECDBFED01C0
S1090C300895F894FFCFC3
S1130C360000F6012000434F55434F55203A292022
S1130C460D0041542B43574D4F44453D310D004152
S1130C56542B43574A41503D227265736561755F53
S1130C6670617274616765222C22313233756E6548
S1130C766465757874726F6973220D0041542B4351
S1130C8649504D55583D310D00627574746F6E2090
S1130C96697320707265737365640041542B43490C
S1130CA65053544152543D302C22544350222C224A
S1130CB66170692E7468696E67737065616B2E6303
S1130CC66F6D222C38300D0041542B434950534547
S1130CD64E443D302C34390D00474554202F757051
S1130CE6646174653F6170695F6B65793D3854571B
S1130CF6545254514E5258384B5837455526666906
S1130D06656C64313D3132300A0D0053686F756C81
S10F0D166420626520656E747279000030
S9030000FC
